:020000040800F2
:10000000F814052005030008F9FE00087DB7000874
:10001000E9F300080113000825850108000000002D
:100020000000000000000000000000005D4D01081D
:10003000D7230008000000005D0D0008E54D010811
:100040003F0300083F0300083F030008593A010836
:100050003F0300083F0300083F0300083F03000878
:100060003F0300083F0300083F0300083F03000868
:100070003F0300083F0300083F0300083F03000858
:100080003F0300083F0300083F0300083F03000848
:100090003F0300083F0300083F0300083F03000838
:1000A0003F0300083F0300083F0300083F03000828
:1000B0003F0300083F0300083F0300083F03000818
:1000C0003F0300083F0300083F0300083F03000808
:1000D0003F030008D58401083F0300083F030008E0
:1000E0003F0300084D3A01083F0300083F030008A2
:1000F0003F0300083F0300083F0300083F030008D8
:100100003F0300083F0300083F0300083F030008C7
:100110003F0300083F0300083F0300083F030008B7
:100120003F0300083F0300083F0300083F030008A7
:100130003F0300083F0300083F0300083F03000897
:100140003F0300083F0300083F0300083F03000887
:100150003F0300083F0300083F0300083F03000877
:100160003F0300083F0300083F0300083F03000867
:100170003F0300083F0300083F03000800000000A1
:100180003F0300083F0300083F0300083F03000847
:100190003F0300083F0300083F0300083F03000837
:1001A0003F0300083F0300083F0300083F03000827
:1001B0003F0300083F0300083F0300083F03000817
:1001C0003F0300083F030008000000003F03000851
:1001D0003F0300083F0300083F0300083F030008F7
:1001E0003F0300083F0300083F0300083F030008E7
:1001F0003F0300083F03000800F002F800F06BF82E
:100200000AA090E8000C82448344AAF10107DA4571
:1002100001D100F060F8AFF2090EBAE80F0013F058
:10022000010F18BFFB1A43F001031847AC4E03003F
:10023000CC4E030010F8013B0A4413F0030408BF3E
:1002400010F8014B1D1108BF10F8015B641E05D0AA
:1002500010F8016B641E01F8016BF9D1002D15D067
:1002600010F8014B03F00C030C2BA1EB04040ABFA4
:1002700010F8013BA4EB8314A4EB032405F1010364
:1002800014F8016B5B1E01F8016BF9D5914238BF80
:1002900010F8013BD1D3704700230024002500262D
:1002A000103A28BF78C1FBD8520728BF30C148BFD9
:1002B0000B607047642900F03581782900F06E8169
:1002C000732900F05E84002070471FB528F0E5F820
:1002D0001FBD10B510BD00F0B5FC1146FFF7F5FFCE
:1002E00027F028FA00F0D3FC03B4FFF7F2FF03BCB9
:1002F00025F028F930BF72B6704762B6704780F3B8
:100300000888704711488047DFF84400016841F4CD
:1003100070010160BFF34F8FDFF83800016821F0F2
:1003200040410160BFF36F8F0B480047FEE7FEE7D7
:10033000FEE7FEE7FEE7FEE7FEE7FEE7FEE7FEE795
:1003400006480749074A084B70470000094E010854
:1003500088ED00E034EF00E0F9010008F80805201E
:10036000F8140520F80A0520F80A052072B670472F
:1003700062B67047EFF3108072B6704780F3108852
:10038000704730BF704720BF7047B0FA80F07047A9
:1003900090FAA0F0B0FA80F0704790FAA0F07047A1
:1003A000704753EA020C00F069802DE9F04B4FF0E2
:1003B0000006002B1FBFB3FA83F503FA05F424FAF5
:1003C00005F65E4012BF1643B2FA82F502FA05F452
:1003D000C5F120051EBF22FA05FC44EA0C042035B5
:1003E00056EA044C4FEA144418BF641C4FF000084E
:1003F0004FF00009904271EB030C39D3002919BF6B
:10040000B1FA81F701FA07F6B0FA80F700FA07F6B9
:10041000C7F120071EBF20FA07FC46EA0C0620376A
:10042000B6FBF4FCA7EB0507103F07F01F0BCBF161
:1004300020060CFA0BFB2CFA06F644BFB346002646
:10044000202FA4BF5E464FF0000B5BEA060C08BFEE
:100450004FF0010B19EB0B09ABFB027C48EB0608D4
:10046000C01B06FB02CC0BFB03CC71EB0C01C1E7FC
:100470000B46024641464846BDE8F08B13B54FF0A7
:1004800000004FF00001AFF30080BDE81C40704752
:100490000FB4044910B503AA029800F077FB10BC12
:1004A0005DF814FB140002200FB41CB5074B06AA1C
:1004B0007B4469460090059800F039FB00206946AE
:1004C00000F048FB1CBC5DF814FB0000A106000016
:1004D00070B50C460546012A05D02878800600D55F
:1004E000EA69002302E0012305E05B1C934202D28B
:1004F000E05C0028F9D1A869E618C01AA861286A4A
:10050000184428622846AFF3008004E0D5E90121B1
:1005100014F8010B9047B442F8D32846AFF300809B
:1005200070BD00002DE9F0410646002410687529D1
:10053000314616A510D0AFF30080002802DA404201
:1005400013A507E031688A0701D512A502E0490723
:1005500004D511A5012401E0AFF3008000210A2297
:1005600006F1240709E0B0FBF2FCB0FBF2F302FB5A
:100570001C00303078541846491C0028F3D123461B
:100580002A463046BDE8F04100F073BA0000000092
:100590002D0000002B0000002000000070B5044674
:1005A0000D4621461068AFF300802188090502D569
:1005B0000F4A7A4402E00E4A7A440E32002104F1D6
:1005C000240305E000F00F060009965D5E54491C07
:1005D0000028F7D120780023000704D5702D02D021
:1005E00009B1022311322046BDE8704000F041BA43
:1005F000B24703002DE9F047884606460020DFF8A1
:10060000DC90F94430623046F1688847002862D0B7
:10061000252806D0D6E901219047306A401C306277
:10062000F1E700254F463046F16888472028044608
:1006300007DB312C05D2381910F8200C08B105431E
:10064000F1E7A80701D525F004056C2C0AD0682C29
:1006500008D04C2C38D06A2C34D0742C34D07A2C5E
:1006600032D015E0F168274630468847B842044644
:1006700009D16C2F26D04FF48060F16805433046D5
:100680008847044604E06C2F1AD04FF4807005436D
:100690000CB3A4F14100192802D8203445F40065B8
:1006A00042462146304635604546FFF703FE80B19D
:1006B00001280BD0ED1D25F0070000F10808A2E786
:1006C0004020E4E78020D8E70020D6E705F10408C1
:1006D00099E720469EE7306ABDE8F0878A47030025
:1006E00040EA010310B59B070FD1042A0DD310C8AF
:1006F00008C9121F9C42F8D020BA19BA884201D901
:10070000012010BD4FF0FF3010BD1AB1D30703D048
:10071000521C07E0002010BD10F8013B11F8014BFE
:100720001B1B07D110F8013B11F8014B1B1B01D11A
:10073000921EF1D1184610BD40EA0103024630B5C1
:100740009B0710D14FF0013400E008C208C91D1BFF
:100750009D4315EAC41FF8D013F0FF0102F8011BF6
:100760000DD01B0AF8E711F8013B002B02F8013B02
:1007700005D011F8013B002B02F8013BF3D130BD4D
:1007800010B5431C02E010F8011B71B18107FAD1CA
:100790004FF0013202C88C1A8C4314EAC211F9D00E
:1007A000C01A0A0603D0C01E10BDC01A10BD0A042C
:1007B00001D0801E10BD0902FCD0401E10BD421E9B
:1007C00012F8013F002BFBD111F8013B002B02F87E
:1007D000013BF9D17047032A40F2308010F0030C3E
:1007E00000F0158011F8013BBCF1020F624498BF84
:1007F00011F801CB00F8013B38BF11F8013BA2F121
:10080000040298BF00F801CB38BF00F8013B11F09B
:10081000030300F06780083AC0F0088051F8043BF9
:10082000083A51F804CBA0E80810F5E7121D5CBFA8
:1008300051F8043B40F8043BAFF30080D20724BFDB
:1008400011F8013B11F801CB48BF11F8012B24BF6F
:1008500000F8013B00F801CB48BF00F8012B7047BE
:10086000431A28BF9A427FF6B6AF032A10441144B8
:1008700040F2268010F0030F1EBF11F8013D521EFA
:1008800000F8013D10F0030F7FF4F6AF11F0030301
:1008900000F0A181083AC0F00B8051F8043D083AFD
:1008A00051F804CD40F8043D40F804CDFFF7F3BF04
:1008B000121D5CBF51F8043D40F8043DAFF30080C9
:1008C000D20724BF11F8013D11F801CD48BF11F83E
:1008D000012C24BF00F8013D00F801CD48BF00F80D
:1008E000012C704710B5203AC0F00B80B1E81850C9
:1008F000203AA0E81850B1E81850A0E81850BFF40A
:10090000F5AF5FEA027C24BFB1E81850A0E81850A8
:1009100044BF18C918C0BDE810405FEA827C24BFFC
:1009200051F8043B40F8043B08BF7047D20728BF8A
:1009300031F8023B48BF11F8012B28BF20F8023BD9
:1009400048BF00F8012B704702F0FF0343EA03227F
:1009500042EA024200F002B84FF000020429C0F05F
:10096000128010F0030C00F01B80CCF1040CBCF1E1
:10097000020F18BF00F8012BA8BF20F8022BA1EB33
:100980000C0100F00DB85FEAC17C24BF00F8012B18
:1009900000F8012B48BF00F8012B70474FF0000210
:1009A00000B5134694469646203922BFA0E80C5065
:1009B000A0E80C50B1F12001BFF4F7AF090728BF40
:1009C000A0E80C5048BF0CC05DF804EB890028BFBC
:1009D00040F8042B08BF704748BF20F8022B11F0E5
:1009E000804F18BF00F8012B704700004FF0013C0A
:1009F00050F8042B51F8043B9A4215D1A2EB0C039A
:100A0000934313EACC130BD150F8042B51F8043B59
:100A10009A4209D1A2EB0C03934313EACC13E7D01B
:100A20004FF00000704700BFD01A01BAB1FA81F14F
:100A300001F0180122FA01F0CB40C1F12001DBB234
:100A4000C0B2C01A2CFA01F3D11A914311EAC311B2
:100A5000E6D17047704770477047704710B500F097
:100A6000E5F8006810BD10B5044600F0DFF804603A
:100A700010BD2DE9F0470D4699469246044600F117
:100A800024080168880604D5E06921F0100121607E
:100A900000E00120A84201DD471B00E00027A1691A
:100AA0007A1902EB0900081AA0612078C00602D466
:100AB0002046AFF30080002608E0D4E901211AF8AF
:100AC00006009047206A401C761C20624E45F4DBED
:100AD0002078C0060AD52046AFF3008006E0D4E9AE
:100AE000012130209047206A401C2062381EA7F167
:100AF0000107F4DC07E0D4E9012118F8050090476C
:100B0000206A401C2062281EA5F10105F3DC204666
:100B1000AFF300802078000602D50220BDE8F08700
:100B20000120FBE701694A1C02610878704700B5A3
:100B30008FB0CDE901310021059105497944CDE916
:100B4000031011466846FFF755FD0FB000BD0000C9
:100B5000E5FFFFFF0A6802F8010B0A60704710B555
:100B6000436913B1AFF3008001E0FFF7B1FC01204E
:100B700010BD127800F124010A7000224A7001228F
:100B8000EDE711684FF0FF32E9E70000074B70B561
:100B90000D467B44FFF7CBFF0446284600F04AF899
:100BA00010B14FF0FF3070BD204670BD6767020086
:100BB000431A28BF9A427FF695AE104410F0030FF7
:100BC00011441EBF11F8013D521E00F8013D10F006
:100BD000030F7FF4F6AF103AC0F00A8010B531E988
:100BE0001850103A20E91850BFF4F9AFBDE8104092
:100BF000530724BF31E9081020E9081044BF51F819
:100C0000043D40F8043D12F0030F08BF7047D207BF
:100C100028BF31F8023D48BF11F8012C28BF20F849
:100C2000023D48BF00F8012C7047000000487047A3
:100C300094080520007B00F0800070470048704752
:100C4000940805207546FFF7F9FFAE460500694692
:100C5000534620F00700854618B020B5FFF770FB1B
:100C6000BDE820404FF000064FF000074FF00008AD
:100C70004FF0000B21F00701AC46ACE8C009ACE82E
:100C8000C009ACE8C009ACE8C0098D46704710B592
:100C90000446AFF300802046BDE81040FFF724BBB8
:100CA000EFF3098141B1F1EE101A40F8041D20ED77
:100CB000200A3E490A6810607047B0EC200A02C85A
:100CC000E1EE101A3A490A681060704772B64EF6A3
:100CD0002250CEF2000040F2FF01C0F2000101708C
:100CE0004FF0000080F3098810F07CFA40F2701099
:100CF000C2F20200016881F3088840F21210C2F2C9
:100D0000020040F21311C2F202010A78027040F2AE
:100D10006815C2F2020540F26C11C2F202010A68C3
:100D20002A60106880F30988EFF3148040F0020015
:100D300080F31488BFF36F8FBDE8F00F0FBCBDE8E0
:100D4000005006BC62B608471A484FF08051016057
:100D5000704718484FF080510160704772B6EFF34A
:100D6000098020E9F00F40F26815C2F202052E68F2
:100D70003060744610F036FA40F21210C2F20200EF
:100D800040F21311C2F202010A78027040F26C11B3
:100D9000C2F202010A682A6044F0F40E1068B0E85A
:100DA000F00F80F3098862B67047000068010220E6
:100DB0006C01022004ED00E00AF032BD2DE9F041A3
:100DC0000D46014600204E19044608E00702301B7C
:100DD000401E80B200F007F8641C3844E4B2AC4214
:100DE000F4D3BDE8F08110B504460AF0D3FD200A23
:100DF000A02101EB4000C0B20AF096FD0AF01AFEF5
:100E0000E0B20AF091FD0AF015FE0AF0C3FDA12040
:100E10000AF08AFD0AF00EFE00200AF051FD044699
:100E20000AF0E0FD204610BD2DE9F04100241646F1
:100E30000D46074609E0E00025FA00F0C1B2381976
:100E400080B200F006F8641CE4B2B442F3D3BDE80B
:100E5000F08170B50D4604460AF09CFD200AA021E1
:100E600001EB4000C0B20AF05FFD0AF0E3FDE0B222
:100E70000AF05AFD0AF0DEFD28460AF055FD0AF098
:100E8000D9FD0AF0AFFDBDE870400A2024F038BE5D
:100E9000002800DC4042704738B5456804460146EA
:100EA000284617F0B9FC00282BD02068304A1128BA
:100EB0000DD006DC0B2825D00E2833D00F2852D1B8
:100EC00012E0282849D0B0F5107F4CD108E0926894
:100ED000002A16D02146284601B0BDE83040104710
:100EE000214628465268F7E7284604F029F8009082
:100EF000406E0468684604F08DF8002C01D0284646
:100F0000A04738BD284604F01BF80090683003F075
:100F10006DFF009803216C3003F076FF684604F003
:100F200079F820E0E168486809680D2902D0202995
:100F300013D105E0002810DD284620F0C7FC06E0AC
:100F4000002804DD2846BDE8384020F0BFBC284614
:100F5000BDE83840022120F0CFBCE06818B900217C
:100F6000284600F097F92046BDE8384018F01EB832
:100F7000BC020220F0B5044685B08069B4F908507F
:100F8000668A0027CDE90265CDE900170490B4F91F
:100F90000C00B4F91060C118B4F90A00B4F90E508D
:100FA000104433462A4600F007F80546616800F011
:100FB0007AF905B02846F0BD2DE9F04F85B01F46FF
:100FC000DDE911B4DDE90E5690468946824605F00A
:100FD0006DFA16484C34CDE90204CDE900563B4683
:100FE00042464946504617F029FF040018D003F046
:100FF000A7FF10225946049017F06EFD0498302286
:101000000B493430FFF76EFC094D04990C3D2868FC
:10101000486604A803F0FEFF286841682046884718
:1010200006F0B8FD05B02046BDE8F08F990E000827
:10103000C8020220F0B5044680688B4989B051F897
:101040002050606800287DD0052804D006287AD07A
:10105000122879D1AEE0E86900284FD095E80E005B
:101060008DE80F0004F110010FC907F0DFF9002629
:1010700055F8260006F0B5F8A169E8690A1A216951
:1010800001446069304404F05BFEA169E8690A1A12
:1010900021690144E069801B04F052FEE169E869BE
:1010A0000A1A616901442069304404F0FFFEE169D5
:1010B000E8690A1A61690144A069801B04F0F6FE20
:1010C000761C022ED4DBA86806F08BF8E069E9698B
:1010D0006669431A206942183144801C521E04F08C
:1010E0002FFFE169E869A2690B1A61690144101ACE
:1010F000401C921E04F024FFEE6913E05FF000062E
:1011000055F8260006F06DF8E069831BA069821B84
:10111000606981192069304404F088FE761C022E33
:10112000EEDB0226D5E90301CDE900016169E06942
:1011300008444310A069891C821B2069304404F0D4
:10114000C3FD02E089E012E08AE0D5E90501CDE9BE
:101150000001E36960690121184401EB6001A069A5
:101160009B1E821B2069304404F0AEFD78E02068AD
:1011700003F0E6FE0490206819F070FB40B1A0680F
:1011800008B1002008E00498006F28B1012003E0B6
:101190000498406F00B10220049901EB8000C56EF5
:1011A00004A803F037FF00231A462846216804F0FC
:1011B000D3FA55E0206803F0C3FE0490866EEEB3C8
:1011C000B0F95C70A168D1B3032942D05FF000018F
:1011D00000EB8101406D0C6C06F020F8204606F013
:1011E00000F805A804F06EFFBDF81410A88B0144A8
:1011F000ADF81410BDF81810081AADF81800BDF8B5
:101200001600801CADF81600BDF81A00801EADF85F
:101210001A000498B0F96020B0F95E1005A805F036
:101220002FFE04A803F0F6FE022006F081F83046F7
:1012300003F086FE3A4605A9079001E00BE006E0C0
:1012400004F0CAFB0DF11C0003F0E4FE08E00121EC
:10125000BEE70221BCE704A8F6E7206818F034FFD7
:1012600009B00020F0BD00005C42030838B50D460F
:1012700004000ED005F01AF9204603F061FE00903C
:101280004565684603F0C6FE204618F009FC06F0E6
:1012900081FC38BD4FF480720029114601D017F04F
:1012A0004FBB17F099BA2DE9FF410E4605004FF0EC
:1012B000010421D005F0FAF8284603F041FE019020
:1012C000876E01A8009703F0A5FE3146684607F037
:1012D000C3FB78B100980024B84208D0284603F038
:1012E0002FFE01900099816601A803F093FE284625
:1012F00018F0D6FB06F04EFC04B02046BDE8F081A5
:10130000FEE7F8B5446805460146204617F084FA22
:10131000002836D028680B2839D00E2805D00F2891
:1013200021D0B0F5107F3CD12CE0204603F008FE20
:10133000009010F8746F4778684603F06BFE204603
:1013400019F08CFA10B3E8684168002929DD0068BB
:10135000202826D17F1CB7FBF6F006FB1071204633
:1013600000F031F91DE02546204603F0E9FD00902C
:10137000006F0468684603F04DFE002C01D028463B
:10138000A047F8BD2946204620F0F6FE09E0204699
:1013900003F0D6FD0090783003F028FD684603F096
:1013A00039FE2846BDE8F84017F000BEF0B585B01C
:1013B000B0F90850468A84690296CDE903540027A3
:1013C000CDE90017B0F90C10B0F91050B0F90E408B
:1013D000B0F90A00194410442B46224600F002F8E6
:1013E00005B0F0BD2DE9F04F85B01D46DDE90E9743
:1013F00016468A468346DDF8488005F057F8254CA6
:101400000EB135B10AE02068806800688047064662
:10141000F7E7206880680068804705461D486FF040
:101420007041001DC068884201D147F0010708F1F2
:101430005400194ACDE90220CDE900972B463246E7
:101440005146584617F0FAFC05001CD003F078FD11
:1014500010220490119917F03FFB0E4904983C228A
:10146000091D3430FFF73EFA049821680167022114
:1014700080F874100F21C16704A803F0CBFD206829
:1014800041682846884706F085FB05B02846BDE838
:10149000F08F00004C050220031300082DE9FF47E0
:1014A0000446006810B119F0D9F968B1002231483A
:1014B00050F8221060680A2841D007DCF0B30628F3
:1014C0000DD0072854D106E00122F0E712280AD0F7
:1014D00019284DD137E020461AF040FF48E0204659
:1014E0001CF082FB44E0206803F02AFD0290B0F972
:1014F000548090F85650476C466B02A803F08AFD62
:10150000206800F039F88146684617F07DFEBDF886
:10151000001009EB05000844ADF80000246A3046CD
:1015200005F07CFE022005F003FF384605F059FE69
:1015300042466946204604F04FFA19E007E020468B
:101540001CF0CEFB14E0886904B0BDE8F087206889
:1015500018F0BAFD206803F0F3FC0390B0F9061010
:10156000B0F90220891A491CC16703A803F052FD93
:101570000020E9E7404C030838B5044604F096FF24
:10158000204603F0DDFC0090C46F684603F042FD86
:1015900006F000FB204638BD38B50C46050011D0DA
:1015A00004F084FF284603F0CBFC0090416BA1427D
:1015B00003D04463284618F073FA684603F02AFD06
:1015C00006F0E8FA38BD38B50C4605001BD004F02B
:1015D0006DFF284603F0B4FC009090F87410A1420F
:1015E0000CD980F87540684603F014FD284618F0C1
:1015F00057FA0521284618F013FB02E0684603F06D
:1016000009FD06F0C7FA38BDFEB50D46040022D02C
:10161000002D20D004F04AFF204603F091FC0190F9
:10162000866F01A8009603F0F5FC2946684607F08E
:1016300013FA70B10098B04208D0204603F080FC45
:1016400001900099816701A803F0E4FC204618F09E
:1016500027FA06F09FFAFEBD00B589B0242168463E
:10166000FFF79CF9192001900348006880684168E1
:101670006846884709B000BD4C0502207CB5214C66
:101680000546216831F8220F4A8D104408804888A9
:10169000CA8D10444880284604F0EEFC2168498C2D
:1016A000ADF800104618284607F09CF83044401E5C
:1016B000ADF8040004F02AFE2168898CADF8021010
:1016C0000844401EADF80600684618F053FF04E0D9
:1016D000284602F073FB18F001FF0028F8D10A2D0C
:1016E00004D0BDF804002168401C4884206830F80C
:1016F000221F428D891A01804188C28D891A41803A
:101700007CBD0000300202200549002010B5486071
:1017100000F0A6F800F006F8BDE8104000F086B82A
:10172000A00002202DE9F041104F002635463E80F2
:101730007E80BE60FE607E61BE613E61FEF71AFE85
:10174000002480467E6100F049F800F057F8641CE0
:10175000786924040544240CF4D0C7E904564046B3
:10176000BE61BDE8F041FEF709BE0000A000022006
:1017700003490969884201D9401A7047002070471F
:10178000A000022010B5FEF7F5FD04494C69FEF7F4
:10179000F5FD2046BDE81040FFF7EABFA00002209B
:1017A00010B5FFF7EFFF0446FEF7E4FD034A002102
:1017B0005161FEF7E3FD204610BD0000A0000220AD
:1017C00010B5FEF7D7FD04498C69FEF7D7FD20461A
:1017D000BDE81040FFF7CCBFA000022010B5064CBA
:1017E0002088401C2080608810B900F051F8A0606B
:1017F0006088401C608010BDA000022010B50A4C1B
:101800006088401E0004000C60800CD100F040F89D
:10181000E060A168401A6169814200D26061A169FB
:10182000814200D2A06110BDA000022010B5FEF7D9
:10183000A1FD0446FFF7D2FF054810210DF010FE70
:10184000FFF7DCFF2046BDE81040FEF797BD000023
:1018500041E904200149486070470000A0000220CF
:1018600010B508F0B5FB08490A6842F080720A60BA
:10187000064900224A600A6842F001020A60BDE897
:101880001040FFF7E7BF0000FCED00E0001000E0B3
:101890000148406870470000001000E070B5144D2A
:1018A00000224021284607F00CFB124C206820F053
:1018B000C0002060206840F040002060022024F03A
:1018C00047F900222046082107F0FBFA022024F005
:1018D0003FF901222846402107F0F3FA022024F0C4
:1018E00037F92846BDE870400022402107F0E9BAE8
:1018F000001C024000200240124800B587B0016879
:1019000041F080010160016801F0800105910168EA
:1019100041F4807101600068694600F480700590B0
:10192000402000900120019002900320039006487F
:1019300007F0D0F9082000900448694607F0CAF97A
:1019400007B000BD30380240001C024000200240B9
:1019500070B5144D00224021284607F0B2FA124C0F
:10196000206820F0C0002060206840F04000206027
:10197000022024F0EDF801222046082107F0A1FA08
:10198000022024F0E5F801222846402107F099FAC8
:10199000022024F0DDF82846BDE8704000224021F6
:1019A00007F08FBA001C0240002002402DE9F041F0
:1019B000184E07460024306820F0C00030603068C0
:1019C00030601E2024F0C4F8B046134E00250022DB
:1019D0003046402107F075FA022024F0B9F80122C0
:1019E0003046402107F06DFA60060821040E40469B
:1019F00007F05EFA08B1641CE4B26D1CEDB2082D6C
:101A0000E5D327B1FFF74AFF2046BDE8F081FFF795
:101A10009FFFF9E700200240001C02402DE9F04141
:101A20001A4F0546386820F0C0003860386840F02A
:101A300040003860164E00224021304607F041FA3F
:101A4000022024F085F80024280601D5012200E0B8
:101A500000223846082107F034FA68060122050EF4
:101A60003046402107F02DFA022024F071F80022C0
:101A70003046402107F025FA022024F069F8641C62
:101A8000E4B2082CE0D3BDE8F08100000020024061
:101A9000001C024070B5134C206820F0C00020608C
:101AA000206840F04000206001222046082107F015
:101AB00008FA0D4D01224021284607F002FA1E20A7
:101AC00024F046F800222046082107F0FAF9022007
:101AD00024F03EF82846BDE870400022402107F07F
:101AE000F0B9000000200240001C024010B5104C6C
:101AF000206820F0C0002060206840F04000206096
:101B00000C480122402107F0DCF91E2024F020F8C7
:101B100000222046082107F0D4F9022024F018F80A
:101B200001222046BDE81040082107F0CAB9000094
:101B300000200240001C024070B5164D00242846CB
:101B4000296821F0C0012960296829600122082143
:101B500007F0B7F9104E01224021304607F0B1F9E5
:101B600007E0641CE4B2FA2C03D9FFF7BFFF0120A1
:101B700070BD022023F0ECFF0821284607F098F9F9
:101B80000028EED100223046402107F09AF90020CB
:101B900070BD000000200240001C0240F0B5BFF301
:101BA0004F8FBFF36F8F184900200860174C2168D2
:101BB00041F400312160BFF34F8FBFF36F8F1349A2
:101BC00070310860BFF34F8F081F006843F6FF7540
:101BD0000D4E1036C0F34E31C0F3C90305EA411271
:101BE000184642EA80773760401EFAD2491EF5D285
:101BF000BFF34F8F206840F480302060BFF34F8FD9
:101C0000BFF36F8FF0BD000050EF00E014ED00E077
:101C10002DE9FC410C46050038D004F047FC112C9E
:101C200014D0132C28460ED003F08AF9009000F04F
:101C3000BAFB0646684603F0EDF9204622F04CFB5D
:101C4000074600241CE000F006FB1BE0284600F0DD
:101C500087F917E02146284600F0A8FB019070B1F3
:101C6000007822F039FB00F0FF0801A803F0D2F958
:101C7000B84504D12146284600F04CFB02E0641C24
:101C8000B442E7DBBDE8FC4105F084BFBDE8FC8160
:101C9000F8B50C46050018D0002C16D004F006FC50
:101CA000284603F04DF90090C66B684603F0B2F980
:101CB0002046FEF765FD421C2146304603F0CEF972
:101CC000284617F0EDFE05F065FFF8BD2DE9FF4150
:101CD00045680446284603F033F90190D0F888603F
:101CE00001A803F097F90EB1012700E00027214673
:101CF000284616F091FD002856D02068112844D0BF
:101D000006DC0B2863D00E2878D00F282BD14FE0AB
:101D1000212805D026281AD0B0F5107F23D139E02C
:101D2000E068416800291EDD00680D281BD130469F
:101D30000BF0EDFC002806DB30460BF0E8FC01461A
:101D4000284600F0E7FA284600F07EF875E0E068E3
:101D5000012809D00A2802D00B2871D111E00A21EC
:101D6000284617F05DFF6BE030460BF0D0FC0028F2
:101D700066DB30460BF0CBFC0146284600F0CAFA81
:101D80005BE0284600F060F85AE0FFB9E068007AAE
:101D900098BB55E0E06848B1007A08B1012100E045
:101DA0000221284617F03CFFBDE8FF810321F8E738
:101DB0002E46284603F0C4F80290D0F88400056847
:101DC00002A803F027F90DB13046A84738E02846AD
:101DD00003F0B6F80090C06B03F080F90098D0F8DB
:101DE000880017F01BF90098D0F8940002F0D4FF97
:101DF000684603F00FF923E000E016E0E068416870
:101E000000291DDD016820290FD006DC092910D02A
:101E10000A2915D01B2904D112E0212910D022292A
:101E20000ED02846FFF7F4FEBEE7284600F0FAF889
:101E300006E017F05BFAB04202D1284618F0BEF86F
:101E4000204617F0B3F8AFE738B5040016D004F019
:101E50002DFB204603F074F80090D0F8880040B1C4
:101E600017F0DCF800990020C1F88800204617F030
:101E700017FE684603F0CEF805F08CFE38BDF0B5CD
:101E800085B0B0F90850468A84690296CDE90354BA
:101E90000027CDE90017B0F90C10B0F91050B0F9D7
:101EA0000E40B0F90A00194410442B46224600F0B7
:101EB00003F805B0F0BD00002DE9FF5F1D46DDE928
:101EC0000F8691468A4683460E9F129C04F0EEFAD6
:101ED00021496C34CDE90214CDE900784FF0FF338D
:101EE0004A465146584616F0A9FF04002DD003F08B
:101EF00027F810220090119916F0EEFD0098382274
:101F0000164980F88C604C30FEF7ECFC134E0098BC
:101F1000361F3168C0F88410002180F89010C58603
:101F2000204600F01FFA684603F074F803F0D3F877
:101F30000546204603F004F80090C563684603F0A8
:101F400069F8306841682046884705F023FE04B0F0
:101F50002046BDE8F09F0000CD1C0008900502203F
:101F600010B5044600F063F9010000D0411E204680
:101F7000BDE8104000F0CEB9F8B50546006802F0A3
:101F8000DFFF0090448ED0F88860684603F042F886
:101F900006B1012604F00104286818F05FFC0EB1B8
:101FA000002006E00CB1012003E008B1022000E0AF
:101FB00003201B4951F82010686858B302280CD040
:101FC000052802D0122828D103E028461AF0F2F999
:101FD00023E028461CF0B3FA1FE06A69E8694FF075
:101FE000FF33801AA0F1080203EB6204421CAB69C4
:101FF000001B4510A3EB6206C86905F0F2F806E085
:102000003219311B284603F09BFE641E6D1C002C08
:10201000F6DA02E0286818F057F80020F8BD000052
:10202000484C03082DE9F14F9EB01E9800287DD042
:1020300004F03CFA1E9802F083FF0B901E9817F0F4
:1020400060FA03900B98B0F9367090F890101891E0
:10205000C16B0A9190F88C90B0F93410159100F092
:10206000A2F982460B9804ACB0F88E101491B0F926
:1020700082101391C16C1291D0E90012CDE90C12BB
:10208000D0F894B0002100BF00EB8102126D44F83B
:102090002120491C0329F7D3002107AD00EB810261
:1020A000D26D45F82120491C0329F7D300210EAE3B
:1020B00000EB8102126F46F82120491C0329F7D357
:1020C0000BA802F0A7FF1E9817F0ADF902F038FF39
:1020D0001190D0F8008011A802F09CFF4FEA284030
:1020E00042420FFA88F041420CA804F0C9FE5FEAB0
:1020F000897003D5BDF83200C01B01E0BDF8360081
:10210000ADF832001E9817F08EF9014603980222AE
:10211000CDE900070292BDF93230BDF93020002030
:102120000BF079FA80465FEAC97000E07CE007D0E6
:10213000404618990BF039FD012140460BF05AFC3E
:10214000002708E039460A9803F029F8014640467E
:102150000BF01CF97F1C5745F4D30027394654F87F
:10216000272040460BF070FC7F1C032FF6D3002481
:10217000214655F8242040460BF0B0FD641C032C8A
:10218000F6D30024214656F8242040460BF0EDFCFF
:10219000641C032CF6D35FEA0B001FD002F0D0FEC4
:1021A000169030F8025B00240646012711E000BFBC
:1021B00006EBD40004F00701007807FA01F10842A9
:1021C00001D0012200E00022214640460BF06EFCC7
:1021D000641CAC42ECDB16A802F01CFF40461499CC
:1021E0000BF097FC404612990BF047FC40461399C0
:1021F0000BF05FFD404617F0E1FE40461E990BF0E4
:102200009FFC404615990BF0EDFC01211E9817F03C
:1022100007FD1E9802F094FE0B90C0F888800BA872
:1022200002F0F8FE05F0B6FC1FB0BDE8F08F38B53F
:1022300005004FF000040CD004F038F9284602F0F5
:102240007FFE0090B0F93440684602F0E3FE05F0EE
:10225000A1FC204638BD10B50446FFF7E8FF411C3D
:102260002046BDE8104000F055B8F8B50E46040011
:1022700021D004F01BF9204602F062FE009090F895
:102280008C10D0F8885021F001040EB144F0010404
:10229000A1420BD080F88C40684602F0BBFE45B1ED
:1022A00004F0010128460BF0A5FB02E0684602F0AD
:1022B000B1FE05F06FFCF8BDF8B50C46060028D05D
:1022C00004F0F4F8304602F03BFE0090D0F888505D
:1022D000C06C04F06FF807460098C464684602F0CA
:1022E00099FE304600F03EF8304617F0D9FB75B144
:1022F000204604F05FF8B84205D03046FFF7A4FD51
:102300003046FFF78FFE214628460BF0B6FB05F05E
:1023100041FCF8BD38B50C46050022D004F0C6F8E3
:10232000284602F00DFE009000F03DF800B1401E7E
:10233000844200DD04460098B0F93410A1420BD06D
:102340008486684602F066FE284617F0A9FB042141
:10235000284617F065FC02E0684602F05BFE05F0D7
:1023600019FC38BDF8B5044602F0EAFD01460090BC
:10237000B0F9380010B9C86C04F01CF80099CA6AAA
:10238000B1F98030126800EB43001618084618F0C7
:10239000E3F80546684602F03DFE324629462046EF
:1023A00017F0E7FEF8BDC06B02F0EDBE38B50D4684
:1023B000002402F0C5FD0090C06B294602F0EFFE3C
:1023C0000546684602F026FE1DB1284602F0B8FD1B
:1023D0000446204638BD704770B5044600680F2893
:1023E00006D01D280CD02046BDE8704016F0DEBD9A
:1023F0006FF07F4004F0F5FEBDE8704003F048B890
:10240000606840F6011116F043FF1649054612F0C8
:10241000C7FD15A1284612F0DAFD606840F60211EA
:1024200016F036FF1849054612F0BAFD17A12846E6
:1024300012F0CDFDFF21284612F0F3FD606840F652
:10244000031116F025FF1049044612F0A9FD14A14E
:10245000204612F0BCFD2046BDE87040FF2112F07E
:10246000E0BD000074350308466F6E74205570643B
:10247000617461696E672C506C656173652057618A
:1024800069742E2E2E0000004C19030865726173CA
:102490006520636869702E2E2E2E2E2E00000000FF
:1024A00030250000C268D1E9002342EA03220B89EB
:1024B000097B1B0443EA01610A43C26000207047A4
:1024C0008268D1E9002342EA03220B89097B1B04BD
:1024D00043EA01610A4382600020704730B5026818
:1024E0000A4B1A40D1E901342343D1E903452C4377
:1024F00023434C69896943EA442343EA4131114348
:1025000041F008010160002030BD00008101F0FFB2
:1025100070B5B3F5804F05D06FF0704140F82210D0
:10252000002070BD50F82230084C2340D1E900450E
:102530008E8944EA05148D6889692D0245EA0645AD
:102540002C430C431C4340F82240E9E70000F0CF45
:10255000F0B50C6850F824501A4A1540D1E901230F
:10256000D1E903671A433E4332434E6932438E69D1
:102570003243CE6932430E6A32434E6A32438E6A28
:102580003243CE6A32430E6B32438E6B32434E6B14
:1025900032432A43082B01D142F0400240F8242064
:1025A0000A6BB2F5801F05D10A684AB1026842F48D
:1025B000801202600A681AB10268496B0A4302601D
:1025C0000020F0BD8004C0FF00EB8202F0B553682C
:1025D0008E8903F04044D1E9003543EA05138D6844
:1025E0002D0245EA06450E8A2B430D4D05EB065696
:1025F00033430E7D6F0107EB066633438E69334329
:10260000234353600268D20207D54268098A22F444
:10261000700205EB0151114341600020F0BD000044
:102620000000F0FF30B5D1E901230D681A43D1E96C
:10263000033423431A434B691A438B691A43D1E984
:102640000734496A012D056807D01A4322430A431B
:102650006FF30E052A4302600AE025F4F845234390
:1026600029430B43416803606FF30E010A43426044
:10267000002030BD426942EA4101416100207047BB
:10268000F8B514460546D1E900026FF01F03104368
:102690008A68C96803EB421242EA4121084300906C
:1026A000286106F013FC064609E0601C07D024B13F
:1026B00006F00CFC801BA04201D90320F8BDA869DC
:1026C0008006F2D40020F8BDF0B5D1E900346FF0F7
:1026D0000F055B1E2E0105EB041423438C682F03AA
:1026E0004FEA054C0D8A06EB04248E8A2343CC68FE
:1026F000097E4FF07F4E012A07EB05450CEB06568D
:102700000EEB01610CD082683F1107EB04342343C8
:102710002B4333430B4302F07042134383600FE0BB
:102720008768084A17402203C468A2F580523243E2
:102730003A4382602B430B4304F070442343C3604D
:102740000020F0BDFF0F0FFF2DE9F0470446406861
:102750008EB00027804602F0F3FB0090B0F87CA01A
:10276000D0F86890D0F88060D0F88850C06D00B183
:102770000768684602F04EFC05E069682046884715
:10278000002843D12D68002DF7D12068172853D099
:102790000CDC0F283DD004DC0B2877D00D2825D188
:1027A0008BE0112810D0142820D13BE0262846D0F9
:1027B00004DC1E2851D0202818D18AE02A2816D0FF
:1027C000B0F5107F12D128E04046E56802F0B8FB72
:1027D0000290697A39B9297A012904D130F87C1F2D
:1027E00041F48071018002A802F014FC75E04046BB
:1027F00002F0A6FB0090E16811B1C0F8841002E07D
:10280000D0F88400E060684602F004FC0EB0BDE839
:10281000F087D7B34046B8475FE0214640461FF0F7
:1028200073FCF3E705A9404600F0B3FBE0680699A6
:10283000016007994160E9E7C4F80C90E6E7E068B9
:102840000228E3D1CDF83080E0680D9027200A906F
:102850000AA9A06818F0FCF9D8E7E068012804D0BC
:102860000021404600F0BBFAD0E7304617F081F96E
:1028700068B1304617F0A2FB304617F03DF898B12A
:102880000121304616F05CF80EE026E02FE04846C5
:1028900017F0E8FB0646404602F052FB0090C0F8F5
:1028A0008060684602F0B6FB0121404600F097FACE
:1028B000002EABD10020E060A8E75FEA0A700CD4DC
:1028C000E068C06848B1007A38B1404617F076FB3E
:1028D00003E0214640461FF02CF82146404615F003
:1028E0009BFF002892D0204616F060FB8EE7404602
:1028F00002F026FB0090703002F078FA684673E729
:10290000F0B587B0B0F908400DF10C0C0C9E87694A
:1029100045688CE8F000448A0025CDE90015029452
:10292000B0F90C10B0F91050B0F90E40B0F90A002F
:10293000194410442B46224600F002F807B0F0BDBF
:102940002DE9F04F8BB09846DDE9155691468A4641
:102950008346149F1A9C03F0A9FD3348603445F464
:102960008055CDE90204CDE9007543464A465146FB
:10297000584616F063FA04004FD002F0E1FA302214
:102980000490179916F0A8F80498282227493430A3
:10299000FDF7A8FF04981999244F4166A0F87C60C0
:1029A0000026C0F88060C666083FC0F88860796875
:1029B000C16504A802F02EFB05A9204600F0E9FA43
:1029C0001B4841F2827103960094CDE90110BDF9D4
:1029D0001E00BDF91A10BDF91C20431ABDF91800DC
:1029E0005B1C121A521C16F029FA064678684168D8
:1029F00020468847204602F0A3FA0490866604A881
:102A000002F008FB42F20400054202D1204616F013
:102A10007DFB2046189900F027FA05F0BBF80BB0B3
:102A20002046BDE8F08F000049270008000302207F
:102A3000993200082DE9F041044694B0006800F096
:102A4000B7F908B1D94D01E0D84D2C35606815288B
:102A50001ED00CDC0B281FD004DC00287ED00528FB
:102A60007DD12FE10E287BD01228F9D141E1162823
:102A700006D0172808D0182808D01C28F0D109E063
:102A8000E86914B0BDE8F081286AFAE7686AF8E7F7
:102A9000A86AF6E76869F4E720680B901C200C90A0
:102AA000206802F04DFA0390016D0BA88847064696
:102AB00003A802F0AFFA022E0FDB95E807008DE8BD
:102AC0000700D4E904023346A16905F075FC2069CA
:102AD0008719A069A0EB06082CE0286804F081FBA8
:102AE0002169E8690A18521E606903F029F9A26990
:102AF000E869111A491C606903F022F9D4E9040756
:102B00007F1C394603F06CF93946A06903F068F977
:102B1000686804F066FB20693946401C03F060F9E0
:102B2000A0693946401E03F05BF9A0692769A0F14E
:102B30000208BF1C286804F054FB4246394660690D
:102B400003F0FEF8686804F04CFB606942463946C1
:102B5000401C03F0F5F8686A022802E015E1B0E0D5
:102B600000E10BDDA86804F03CFB61696A6A881C1F
:102B70008B180146424638465B1E27E0296AB1425F
:102B800026DD6069022E074600F1020801DB3744AA
:102B900001E007F10207206901DB304401E000F1A8
:102BA000020022693B460A444146A2F1010203F0B9
:102BB000C7F9022E02DBA069821B01E0A269921E06
:102BC000A069E9693B46401A4146401C03F0B8F948
:102BD000022E02DB6069064401E06669B61CE76903
:102BE00028687F1E04F0FDFA3A463146206903F05A
:102BF0005DF93A463146A06903F058F9E76968681B
:102C0000BF1E04F0EEFA20693A463146401C03F03C
:102C10004DF9A0693A463146401E03F047F9E8698C
:102C2000022802DC286A022823DDA86A022802DDC5
:102C3000E1690F1A01E0E769BF1EA86804F0D1FA44
:102C4000E969022909DD20693B46421800F1020CBE
:102C500031466046521E03F073F9286A022808DDE7
:102C6000A269E8693B46101A3146401C921E03F0E7
:102C700067F9286804F0B5FAD4E90620216903F061
:102C80005FF8686804F0ADFAD4E906202169401EB7
:102C9000491C521E03F054F8A86A022811DDA169EC
:102CA0002669E469A1F10208271AA41EB61C7F1C3C
:102CB000A86804F096FA234642463946304603F0A7
:102CC0003FF971E0208A00B2ADF81400A18A09B280
:102CD000ADF81610228B12B2ADF81820A38B1BB2E0
:102CE000ADF81A302C69ED68CDE9005402F0ECFF24
:102CF0005AE0208A298B0844ADF81400A08AADF868
:102D00001600208B298B401AADF81800A08BADF867
:102D10001A00206802F014F90390006FF0B102204D
:102D200004F006FB039890F87C10C1F3C00100EB9F
:102D30008100006C04F055FA0398406B04F06EFAC1
:102D40000398006F02F0FCF803990990B1F95A203A
:102D500005A902F041FE09A802F05CF903A802F0FF
:102D600059F921E0208AADF81400A08AADF81600C8
:102D7000208BADF81800A08BADF81A00A86804F0FD
:102D800030FA05A803F008F90EE0206802F0D8F840
:102D9000039030F85A1F41F00C01018003A802F0A3
:102DA00039F9206817F090F900206AE6DC05022066
:102DB00038B505004FF000040FD003F077FB28462C
:102DC00002F0BEF8009090F87C00000700D50124C6
:102DD000684602F01FF904F0DDFE204638BD70B5EC
:102DE0000D46040009D003F061FB2946204620F07F
:102DF000DBF9BDE8704004F0CDBE70BD2DE9FC41AB
:102E00000D46804603F052FB5FEA080028D002F02E
:102E100097F80190C16D8C6800F022F9074601987F
:102E2000456301A802F0F6F8226801214046904768
:102E30000646226803214046904705462268002145
:102E4000404690470446404600F0EFF92B46324694
:102E500039464046009400F078F9404616F020FECE
:102E600004F098FEBDE8FC817CB50D4604001DD041
:102E700003F01CFB204602F063F80090006F019005
:102E8000684602F0C7F8294601A805F0E5FD58B1EB
:102E9000204602F055F8009001990167684602F05B
:102EA000B9F8204616F0FCFD04F074FE7CBD38B580
:102EB0000C46050013D003F0F9FA284602F040F85A
:102EC0000090B0F95A10A14204D0A0F85A40284608
:102ED00016F0E6FD684602F09DF804F05BFE38BD92
:102EE00038B50C46050015D003F0E0FA284602F08C
:102EF00027F80022CDF8000000EB8201521C0C6480
:102F0000022AF9D3684602F085F8284616F0C8FD73
:102F100004F040FE38BD2DE9FC470D465FEA00098C
:102F20004FF0000432D003F0C1FA484602F008F82E
:102F30000190B0F95440A54223D000F091F88046AA
:102F400001980121A0F85450C06D856848462A6850
:102F5000904707462A6803214846904706462A6854
:102F60000021484690470546484600F05EF9334642
:102F70003A4641464846009500F0E7F8484616F0C4
:102F80008FFD01A802F046F804F004FE2046BDE8DB
:102F9000FC872DE9F34F85B000270C46B84605980D
:102FA00001F0CEFF0090C06D0121856805982A6868
:102FB000904782462A6803210598904704902A6822
:102FC00002210598904703902A68002105989047B0
:102FD0000646009817F0C0FA8346009817F0C3FA27
:102FE0008146009890F83210890601D5B0F95880D2
:102FF00000F036F805460098C06E10B116F098FA49
:10300000074625806780A4F804A0049AABEB020071
:1030100006EB0802401E2A4420813A44E280039BCA
:10302000A9EB0302521E6281A4F80CA02082701941
:10303000E681401E6082684601F0ECFFB4F90C00A6
:103040000190B4F91000029002AA01A9059800F0BD
:1030500039F80198A0810298208207B0BDE8F08F6E
:1030600010B50146002091F83220920607D5B1F93B
:103070005400002803D1486B03F0A1F9801C10BD57
:1030800070B58AB00C46054601F05AFF0990C06D34
:10309000866809A801F0BEFF009534B1012C06D066
:1030A000022C0BD0032C04D10AE0182000E01620DB
:1030B00001907168684688470AB070BD1520F7E72F
:1030C0001720F5E72DE9FC4117468846044601F034
:1030D00037FF0090C16D056868468E6801F09AFF61
:1030E00032680021204690470646204616F0E1F857
:1030F00027E000BF01F024FF0190B0F900102AB2D0
:10310000B0F90430891A9A1AB0F90230A3EB2543BA
:10311000B34210D190F82800000605D538688842DF
:1031200009DB491E396006E0D8F80000904202DC55
:10313000521CC8F8002001A801F06CFF204616F0D0
:1031400065F90400D6D1BDE8FC812DE9FF4F83B0BD
:103150000E460746DDF8409001F0F2FE0190C16D89
:103160008D68FFF77DFF044601A801F053FF2A6830
:1031700001213846904783462A6803213846904704
:1031800082462A680021384690470546B44207D156
:1031900005998B4504D106998A4501D14D4541D009
:1031A000A41B0026B046384616F083F838E001F03C
:1031B000C7FE0090806A010601D5800502E0810506
:1031C00028D50006002825DB24B1224611463846C2
:1031D00016F063FD009890F8280000060AD50698BE
:1031E000A5EB0902A0EB0A0004FB16013846761C89
:1031F00016F007FD0098008D80050BD50599A5EB0D
:103200000902ABEB010004FB080108F10108384694
:1032100016F0F7FC684601F0FDFE384616F0F6F8A9
:103220000700C4D107B0BDE8F08F70B586B0064680
:1032300001F086FE0590D0E91A4505A801F0EAFEE6
:1032400054EA050026D069463046FFF7A2FEACB12D
:10325000BDF90620BDF90410204616F0A5FCBDF905
:103260000A00BDF90610421ABDF90800BDF90410A4
:10327000521C411A2046491C16F07BFF002D09D034
:10328000BDF90600BDF90210421ABDF90410284626
:1032900016F08AFC06B070BD2DE9F0430446406884
:1032A00089B0054616F0BFF8814601F049FE02904C
:1032B000D0F84880D0F88070466E02A801F0AAFECF
:1032C0002068172853D008DC0E283AD00F2811D0D8
:1032D00014284CD015283DD149E01E281ED01F28A7
:1032E0002AD0222840D0312834D10020E06009B013
:1032F000BDE8F0836FF070414046884503D009F087
:10330000C7FB02F0C5F8002EF1D0D4E90212206804
:10331000CDE90405CDE9061204A81FE0E068002805
:10332000E5D02FB1AF4203D0384616F047FEDEE7B6
:10333000284616F097FEDAE72146484615F06CFA63
:10334000D5E7E0684168002904DD00680928EFD06E
:103350000A2805D05EB12046C4F80490B047C6E7FD
:10336000284616F08EFEC2E7C4F80C80BFE7204660
:1033700015F01CFEBBE7000070B5384888B0016846
:1033800041F080010160016801F08001069101684F
:1033900041F480710160006801A9002400F480708C
:1033A00006908020012681E85100032004902C48DB
:1033B00005F090FC3502CDE901562A4E01A93046B0
:1033C00005F088FCFEF798FA00222946304605F001
:1033D00078FD142022F094FB01222946304605F0A6
:1033E00070FD322022F08CFB0122694600208DF80E
:1033F000004000F007F901226946A42000F002F91C
:103400001620694601228DF80000802000F0FAF8AD
:103410000C20694601228DF80000882000F0F2F8A7
:1034200002226946A12000F025F89DF800103029FD
:1034300003D19DF80100032808D09DF80100012860
:1034400004D0022802D0012008B070BDC0B200EB49
:10345000012105A0FDF71CF80020F5E730380240F7
:10346000001C0240002002404354502049443A25A9
:10347000780D0A002DE9F04115460F460446FEF787
:1034800009FB7020FEF7CAFAFEF756FBE0B2FEF722
:10349000C5FAFEF751FBFEF7FDFA7120FEF7BEFA02
:1034A000FEF74AFB00246E1E09E0B44201D0012061
:1034B00000E00020FEF77AFA3855641CE4B2AC4212
:1034C000F3D3BDE8F041FEF711BB00002DE9F14355
:1034D000484F00244FF00A09474D82B0A046387883
:1034E000401CC0B23870B0FBF9F209FB120109B1FF
:1034F0000A2864D20122022002A9FFF7BBFF9DF82F
:10350000080001075BD000F00F00062857D2FF210A
:103510004FF001088140C843002640F0C00085F804
:10352000200095F8201008FA04F001423AD0334800
:103530000422694630F81400FFF79CFF95F830002C
:103540009DF80010C0079DF8010001F00F010ED09A
:1035500000EB012105EB4400C1829DF802209DF89B
:10356000031002F00F0201EB0221818110E000EB59
:10357000012023490988091A05EB440081819DF83F
:1035800002209DF8031002F00F0201EB0221C1821C
:103590009DF800000821B1EB101F03D005EB44009B
:1035A000C6828681641CE4B2052CBAD3A9894FF087
:1035B000010819B9E88A08B98DF808603E709DF8CD
:1035C0000800C0060ED195F82000010602D520F0B3
:1035D000800005E04FF6FF71A98100F0E000E9826C
:1035E00085F820003878F02801D987F80090404607
:1035F000BDE8FE83600002202C00022000CC0208FF
:10360000342D02202DE9F041002715460E460446D0
:10361000FEF740FA7020FEF701FAFEF78DFAE0B2ED
:10362000FEF7FCF9FEF788FA002408E0305DFEF7AB
:10363000F5F9FEF781FA070003D1641CE4B2AC424D
:10364000F4D3FEF753FA3846BDE8F08138B50A4D99
:1036500004464FF0AA306A46009004230021A8795E
:1036600060430CF039FCA879042300216A466043CA
:10367000401C0CF031FC38BD9C2D02202DE9FC478C
:10368000254F00258946064600240DF1040810E068
:10369000CDF800804A46798870438B0800210CF0F1
:1036A00099FA7888BDF80410B1EB900F04D1641C2E
:1036B000A4B2B879A042EBD8B879A04202D10020D8
:1036C000BDE8FC8730460CF069F820B113A029460C
:1036D000FCF7DEFE16E0B9F1FF3F13D000200AE050
:1036E0007A8806FB00109308002211460CF0CCFBF0
:1036F000BDF80400401CADF80400B879BDF8041012
:103700008842EDD86D1CADB2032DBDD309A0314662
:10371000FCF7BEFE0120D3E79C2D02206572726F7C
:103720007220657261736520626C6F636B3A256409
:103730000D0A000062616420626C6F636B20636835
:1037400065636B65643A25640D0A000038B5114D58
:10375000044600206A468DF8000001230021A87964
:1037600060430CF06DFA9DF80000FF2801D00220A4
:1037700038BDA879012300216A466043401C0CF043
:103780005FFA9DF80000FF2801D0012038BD00201D
:1037900038BD00009C2D02202DE9F84F91462F4A9C
:1037A0008A461D469179B0FBF1F3B0FBF1F801FBBD
:1037B000130B404600F0B8F8284907464889B8423C
:1037C00002D20120BDE8F88F002428E05C4516D322
:1037D000ADB14A88A2EB0A01A94201D28EB200E043
:1037E000AEB24B4607FB004108FB00405246009634
:1037F0000BF05AFEAD1B4FF0000AB14405E007FB89
:10380000004108FB00400BF021FF30B13846FFF7C4
:103810001DFF012000F024F8CBE7641CA4B20F497F
:103820008879A042D2D80D46A879A04214D1384652
:1038300000F028FA40460BF0B1FF6A890020696960
:1038400008E031F81040444502D121F8107003E03F
:10385000401C80B28242F4D80020B3E79C2D0220A5
:10386000F8B52A4D002106464FF6FF7003E06A695D
:1038700022F81100491C6A898A42F8D80020A881E0
:1038800004461CE0A879042300216A4660430CF03A
:10389000D7F99DF80000FF280CD1B6B1A879012313
:1038A00000216A466043401C0CF0CAF99DF80000F4
:1038B000FF280AD016A02146FCF7EAFD641C69899E
:1038C000A142DFD86A69002016E09DF803109DF838
:1038D000020000EB01206989814202D9696921F85F
:1038E0001040A889401CA881E8E732F810308B42CC
:1038F00001D3E88102E0401C8142F6D8E8896428BF
:1039000001D20220F8BD0020F8BD00009C2D02204D
:1039100062616420626C6F636B20696E6465783AE3
:1039200025640D0A0000000070B5104E104C71891E
:103930002268491E914200D2216000F001052068F2
:10394000294600F017F8411C0AD170892168401EF1
:10395000884207D92946206000F00CF8411C01D0AC
:10396000206070BD4FF0FF3070BD00009C2D022024
:1039700064000220F8B5401C0D46002104000091AF
:1039800012D00C4F012626EA0400A8420AD1B879C9
:10399000611E04236A46484300210CF051F9009847
:1039A000401C04D0641EEED14FF0FF30F8BD601E05
:1039B000F8BD00009C2D0220F8B5254E00273C469E
:1039C000B78113E02046FFF7C1FE70B920460BF027
:1039D000E5FE38B11FA02146FCF75AFD2046FFF74F
:1039E00035FE02E0B089401CB081641C7089A042A1
:1039F000E8D8B1891BA0FCF74BFDB089642801D23F
:103A00000120F8BDC0EB40100097642100EB40009E
:103A1000B0FBF1F5002410E02046FFF797FE58B9FF
:103A2000B07902236A46194660430CF055FA0098B3
:103A3000401C0090A84203D0641C7089A042EBD8BF
:103A40000120FFF70DFF0028DBD00220F8BD0000A9
:103A50009C2D022042616420626C6F636B3A256486
:103A60000D0A0000676F6F645F626C6F636B6E7549
:103A70006D3A25640D0A000010B50BF0B9FE00BBCD
:103A8000184C616911B1002024F010F860894100E0
:103A9000002024F017F8606161894900FCF75CFFA1
:103AA000606970B10120FFF7DBFE60B10EA0FCF78A
:103AB000EFFCFFF781FF90B111A0FCF7E9FC0220B9
:103AC00010BD012010BD618912A0FCF7E1FCA189A5
:103AD00016A0FCF7DDFCE18919A0FCF7D9FC002059
:103AE00010BD00009C2D0220666F726D6174206E07
:103AF000616E6420666C6173682E2E2E0D0A0000C4
:103B0000666F726D6174206661696C6564210D0A6F
:103B100000000000746F74616C20626C6F636B2036
:103B20006E756D3A25640D0A00000000676F6F64C2
:103B300020626C6F636B206E756D3A25640D0A0010
:103B400076616C696420626C6F636B206E756D3A90
:103B500025640D0A000000000549CA89824202D28C
:103B60004FF6FF707047496931F810007047000048
:103B70009C2D02202DE9FF5F00269B4615468246BC
:103B800079E03F4C6088B0FBF5F1A07941430198A2
:103B90008319B3FBF1F0FFF7DFFF6189814203D89E
:103BA000012004B0BDE8F09F354C6188A479B1FBD9
:103BB000F5F26243B3FBF2F702FB17326A43B2FB42
:103BC000F1F300FB0437B2FBF1F001FB1028A1EB8D
:103BD0000800B0FBF5F084B2ABEB0600A04200D2C7
:103BE00084B252461FFA88F1384604FB05F91FFAE1
:103BF00089F30BF0D1FE032809D11FFA89F352464D
:103C00001FFA88F138460BF0C7FE032804D00428B9
:103C10002ED068B30220C4E71FFA88F14B46524603
:103C20003846FFF7B9FDDFF858804FF0FF3198F8BC
:103C30000600B7FBF0F0FFF721FD80B998F8060009
:103C40000021B7FBF0F0FFF719FD814698F8060058
:103C5000B7FBF0F00BF0A2FDB9F1000F08D098F817
:103C60000600B7FBF0F0FFF7F1FC0120FFF7F8FDCD
:103C700005FB04AA26445E4583D3002091E700009B
:103C80009C2D022008B5CC216A4601238DF8001036
:103C900003498979484319460CF01EF908BD000014
:103CA0009C2D02202DE9FF4F0027154685B04FF0CF
:103CB000FF3B7BE0404C6088A179B0FBF5F04843C6
:103CC0000699CB19B3FBF0F0FFF746FF61898046F8
:103CD000414503D8012009B0BDE8F08F364A50882D
:103CE0009279B0FBF5F15143B3FBF1F401FB1431D0
:103CF00001FB05FABAFBF0F308FB0231BAFBF0F264
:103D000002910899C91B03918CB200FB12A9A0EB88
:103D1000090080B2B0FBF5F0ADF80400844200D396
:103D200004464FF0FF3201A8009004FB05F61FFA8D
:103D300089F10298C6F38F030BF04CFF08B1022003
:103D4000C9E7BDF80400B0EB960F0FD1B3B2059AE6
:103D50001FFA89F102980BF0EFFF38B9C3454146CD
:103D600020D00846FFF78EFFC346D8B112488179AC
:103D700040884143A1EB0A000399B0FBF5F08CB2F7
:103D800080B2ADF80400844200D30446059A1FFABD
:103D900089F1029804FB05F63346FFF7FDFC08B1F4
:103DA000032098E7059827443044059008988742F7
:103DB00080D300208FE700009C2D022010B5044620
:103DC0000A2812D00D2C14D002F070FB09480068AC
:103DD000C0690168204688470748016809B1204644
:103DE0008847BDE8104003F0D5BEBDE8104001F0A3
:103DF00049BD10BD300202205C0202202DE9F043D3
:103E00000446C56887B090468946002003F0FAF959
:103E1000064625B1287910B146F0020001E026F0EF
:103E2000020003F0EFF92069012558B1D4E902122C
:103E30008DE8260003956388228804684146484639
:103E4000A0471EE0124F134B214638681B68427C86
:103E5000E068984730B9E088012801D0002001E0EF
:103E60003868806BA288E388A1680095CDE90410CA
:103E7000CDE902320195638822884146484607F021
:103E8000FFFE07B03046BDE8F04303F0BBB90000C9
:103E900030020220280202201CB50024019401AC4B
:103EA000009400F0E7F81CBD2DE9FF4F83B0814678
:103EB00006988A46A0EB0A08109E00200090A2EB0C
:103EC00009043568934654EA080018D02046FCF7E8
:103ED000DFFF07464046FCF7DBFF87420BDA204650
:103EE000444680464846D14682465846DDF818B0DA
:103EF000069001200090002C07DD204606E007B068
:103F00004846BDE8F04F00F03BB96042A0420AD0FD
:103F10004846D9466442C8F1000883464FF0FF374F
:103F2000DDF818A000E001275148B8F1000F11D0CA
:103F300004EBD4714FEA610B01DACBF1000B4C4872
:103F40000068807E88B3002F02DA30682044306039
:103F500000257BE000990029016821D0897E11B1FC
:103F60000027804615E007B05A4649465046BDE84E
:103F7000F04F08F04BB828466D1C1FF0DFFA38B937
:103F8000D8F8000009EB0701406E426850469047A0
:103F90007F1CA742EFDD6D1E356007B0BDE8F08FD6
:103FA0008A7E1AB10027804617E019E0486E5A460B
:103FB0005146036807B04846BDE8F04F1847284609
:103FC0006D1C1FF0BBFA38B9D8F8001009EB0700D8
:103FD000496E4A68514690477F1CA742EFDDDAE7F9
:103FE00000250FE008FB05B090FBF4F101EB0A009F
:103FF000009951B11E4A09EB05011268526E5268D0
:1040000090476D1CA542EDDDC7E7194909EB050393
:104010000968496E4A6801461846F1E708FB05B091
:1040200090FBF4F101EB0A000190306838443060F5
:104030001FF084FA48B9009890B10D4809EB0501CA
:104040000068406E4268019890476D1CA542E5DD0E
:104050003068002F01DA20443060C01B30609CE7DC
:10406000034909EB05000968496E4A680199EBE7C5
:10407000300202202DE9FF470F4640491646804690
:1040800009680C981D460A7E012A1CD0A8EB060080
:10409000791B50EA01031CD0A2F1010920F09AFF1C
:1040A00000F58060824604F0C6FD00FB09F450462E
:1040B00004F0C6FD00FB09F1002C0CDAC4F5007019
:1040C000801240420AE00090324639464046FFF7EF
:1040D000EBFEBDE8FF8704F50074A012002904DAA6
:1040E000C1F5007189124C4202E001F500718C1299
:1040F000002804DD411C01EBD171491003E000EB05
:10410000D0714910401E00EBD0704210002C04DD2D
:10411000601C00EBD070401003E004EBD470401042
:10412000641E04EBD47308EB0104ADF800403C18A6
:10413000ADF80240A8EB02045B10B21AADF80440DF
:10414000ADF808203144FC1AEA1AADF80C102844E6
:10415000ADF80A20ADF80E000023ADF806401A466F
:104160000421684600F07AF8394640461AF0AAF869
:10417000294630461AF0A6F8ABE7000030020220CC
:10418000064A13681A7E012A05D0521E02EBD2722B
:10419000521000F005B85A6E5268104730020220E3
:1041A0002DE9F05F0646884640F2C32002FB00F18D
:1041B0004FF47A7091FBF0F702FB02F102EBD27040
:1041C00001EB600B1446B118234A301B7F1C1268A8
:1041D000526E13680A4641469847012538E000BFF1
:1041E00005FB05F004FB040159451CDDBC4219DD4B
:1041F000194B06EB050AA6EB05091B68AAF101029B
:1042000008EB04015B6E09F101001B689847124B33
:10421000AAF10102A8EB04011B6809F101005B6E21
:104220001B689847641E0C4B3219301B1B68924662
:1042300008EB05015B6E81461B689847064B5246AA
:10424000A8EB05011B6848465B6E1B6898476D1C10
:10425000BD42C5DDBDE8F09F300202202DE9FF4FD1
:1042600043F6FF740F46664283B09B4681460021A9
:104270000BE000BF09EB8100B0F90200A04200DAB8
:104280000446B04200DD0646491CB942F2DB6748ED
:104290000068406900280DD0B0F906101A46A1EB5D
:1042A0000B01B14200DA0E46B0F90200801AA042BA
:1042B00000DD0446B4E0DFF878A100200546CAF826
:1042C000000088E0781E854201DA6B1C00E00023C4
:1042D00009EB850C09EB8302BCF90200B2F902106C
:1042E000A04244D1A14215D139F92330059A39F9B8
:1042F000251003EB020C4D4A05981268084404EBA4
:104300000B01526E6045136801DA62462AE00246EC
:10431000604627E02846A4464FF000087A1E0BE0CE
:1043200008B1401E00E0781E09EB8003B3F90230AB
:10433000634504D108F101089045F1DB2346A3420F
:1043400048D01A1B39F92500A1EB040C059B92EA11
:104350000C0F09D4354A184404EB0B011268526E55
:1043600013680246984735E016F068FD32E0A14236
:1043700030D001DBA04203DDA0422BDBA14229DCCF
:10438000E04688420ADC0346A04223DC0846A142FC
:1043900020DBB8F900C0B2F9001008E00B46A142DA
:1043A00018DCA04216DBB2F900C0B8F90010E21A1E
:1043B000A1EB0C0151430029A0EB030202DD01EB4C
:1043C000620102E0A1EB6201491CC01A91FBF0F00E
:1043D0006044C9E76D1CBD42FFF674AF05980090BC
:1043E00004EB0B00019000208046054613E01149C4
:1043F000B8F1000F31F915A009D0009901EB0A02BC
:1044000008440A490968496E0B680199984788F081
:10441000010850466D1C064909688D42E7DB641CA3
:10442000B4427FF748AF07B0BDE8F08F30020220FA
:104430007C0902207C08052010B5002002F0C6FE91
:104440006FF07F4002F0CDFE012002F053FF00200C
:1044500002F05EFF002002F06BFF002002F0D2FEAF
:104460000448006802F0DAFEBDE81040002002F0C7
:1044700013BF00002C0202202DE9F043424889B00E
:10448000016841F080010160016801F0800107913D
:10449000016841F480710160006801AADFF8EC90C6
:1044A000802500F48070079000240095012669465D
:1044B0000327484682E8D00004F00CFC4FF48078D3
:1044C0006946CDE90086324E304604F003FCFDF724
:1044D00013FA00224146304604F0F3FC0A2021F092
:1044E0000FFB01224146304604F0EBFC0A2021F08C
:1044F00007FBCDE90054CDE902476946484604F080
:10450000E9FB642021F0FCFA042248F2401005A9DE
:1045100000F056F805A98DF818401EA0FBF7B8FF6B
:104520001FA105A8FCF762FA18B1012009B0BDE887
:10453000F083022048F2400501228DF8140005A9FD
:10454000284600F079F90122E81D05A900F038F8A5
:104550009DF8141060290BD213A0FBF799FF1748A0
:104560008088A0F5AA41103902D1012000F03EF95F
:104570000A2021F0C5FA0122284605A98DF8144029
:1045800000F05AF90020D1E730380240001C024008
:10459000002002404354502049443A25730D0A003C
:1045A000393134370000000044656661756C742051
:1045B0005665723A25640D0A00000000342D022071
:1045C0002DE9F04115460F460446FDF763FA282011
:1045D000FDF724FAFDF7B0FA200AFDF71FFAFDF700
:1045E000ABFAE0B2FDF71AFAFDF7A6FAFDF752FAB8
:1045F0002920FDF713FAFDF79FFA00246E1E09E04B
:10460000B44201D0012000E00020FDF7CFF9385579
:10461000641CE4B2AC42F3D3BDE8F041FDF766BAE6
:104620002DE9F14F6D4E00244FF00A0B6C4D82B016
:10463000A1463078401CC0B23070B0FBFBF20BFBDF
:10464000120109B10A2873D248F24E1701223846E6
:1046500002A9FFF7B5FF9DF808004FF0000801061A
:104660000AD500F00F00062806D20122384601A91B
:104670008DF8048000F0E0F89DF80800010757D09D
:1046800000F00F01062953D2FF20564F4FF00109C9
:1046900088408DF80400C04395F820A040F0C00089
:1046A00085F82000A889A882E88AE88395F8201078
:1046B00009FA04F001424ED04B480422694630F812
:1046C0001400FFF77DFFB888A0F5AA41103904D087
:1046D000A0F58641423916D03DE095F83000C0077C
:1046E00015D09DF801109DF8000000EB012105EBAD
:1046F0004400C1829DF803209DF8021001EB0221C5
:10470000C1F5487126E095F83000C00711D09DF83A
:1047100001109DF8000000EB012105EB44008181B0
:104720009DF803209DF8021001EB0221C18212E0E6
:104730002CE09DF801109DF8000000EB012105EB35
:104740004400C1829DF803209DF8021001EB022174
:10475000C1F588718181641CE4B2052CA6D3A989B6
:104760004FF001093A882846914203D8C18A7A88D5
:10477000914209D99DF8081001F00F0101290CD9C7
:10478000C1898181018BE98286F800809DF808004B
:1047900000F08F0080280AD018E0818A8181C18BC7
:1047A000C18280218DF8081085F820A0EEE795F8E9
:1047B0002000010602D520F0800005E04FF6FF71D1
:1047C000A98100F0E000E98285F820003078F02827
:1047D00001D986F800B04846BDE8FE8F610002208E
:1047E0002C000220342D0220C2CC020808B5002182
:1047F0008DF800108DF801000E489DF80020435CF4
:10480000491CC9B2B8291A448DF80020F5D3D0B29A
:104810000849C043401C8DF80000B82248F2470008
:1048200000F00AF80222694648F2FF0000F004F89E
:10483000002008BD0ACC02082DE9F04100271546EA
:104840000E460446FDF726F92820FDF7E7F8FDF7A8
:1048500073F9200AFDF7E2F8FDF76EF9E0B2FDF713
:10486000DDF8FDF769F9002408E0305DFDF7D6F8C2
:10487000FDF762F9070003D1641CE4B2AC42F4D343
:10488000FDF734F93846BDE8F08100002DE9F04F1E
:10489000DFF828B191B04FF0FF35DBF80030B3F905
:1048A00022100691DE69B3F92490F469A18981424E
:1048B00006D8E289824203D3471AD4F8008012E076
:1048C000D4E9018100296FD00A8882426CD84D88D2
:1048D000854269D3801A82B2486800EB8200B0F941
:1048E0000070B0F90250781C5ED0307EA17C10FBC5
:1048F00001FA217CCDE90701B3F92A60304608F0BE
:1049000093F9C0B20E90DBF8000007FB0A81A37C8C
:10491000826B0127CDE90412CDE90273C069089AC0
:10492000C17E807ECDE90001DDE90603494607F03E
:10493000A7F9681C18D046F0020008F075F9DBF8FA
:104940000000A37C05FB0A81826BCDE90273CDE9EF
:104950000412C069089AC17E807ECDE90001DDE9BC
:104960000603494607F08CF9DBF800005D46C06994
:10497000417E007E814214D9022E12D086F00400BE
:1049800008F052F92868C069027EC37E12FB0391C9
:10499000437E857E089A06984B4412FB050207F079
:1049A00063FC0E9808F040F9DBF80000627C418C53
:1049B0001144418411B0BDE8F08F000030020220A4
:1049C00004480068C069C06909B1027C0A60407C83
:1049D0007047000030020220022008807047C06942
:1049E00082898A4202D8C2898A4210D2806880B104
:1049F00002888A420DD843888B420AD3406800EB74
:104A00008100A0EB8200B0F90000002801DB01204A
:104A100070470020704700002DE9F043304C0346FA
:104A200087B020681946B0F92A60C069C06900F0F3
:104A30000BF9002850D041680088181A01EBC00516
:104A40003046AF7808F0F0F8814620686A680123A4
:104A5000816BCDE90237CDE90421C169CB7E8A7E25
:104A6000CDE900230B7EB0F924102A78B0F922009A
:104A700007F006F92068C069417E027E91421FD985
:104A8000C07E11FB00F812FB00F7022E18D001F0D7
:104A90001EFB064601F0E4FA02F0A3FB21682A7827
:104AA000CB69B1F92200DB7E12FB0302B1F92410BD
:104AB00001EB0803394407F0D7FB304602F091FBC5
:104AC000484608F0B1F820686A78C369B0F9221046
:104AD0009B7E12FB0311418407B0BDE8F083000008
:104AE0003002022030B50F4C05460B46206829469F
:104AF000C069C06900F0A8F8002812D04168008899
:104B000024682A1A0120E46900EBC200085CA47E34
:104B100010FB04F0002B04D011F8321011FB04F14B
:104B2000196030BD3002022001200880704700B5B6
:104B3000C06900F089F8002800D0012000BD000005
:104B40002DE9F043314D014687B02868B0F92A605D
:104B5000C069C06906E002888A4202D842888A4257
:104B600005D280680028F6D107B0BDE8F0830028A0
:104B7000FAD0446801F0C2FAA778304608F054F839
:104B800081462868224A0123816BCDE90237CDE9AD
:104B90000421C169CB7E8A7ECDE900230B7EB0F96A
:104BA00024102278B0F9220007F06AF82868C0695A
:104BB000417E027E91421CD9C07E022E11FB00F87C
:104BC00012FB00F715D001F082FA064601F048FA10
:104BD00002F007FB29682278B1F92200B1F924100C
:104BE000024401EB0803394407F03EFB304602F073
:104BF000F8FA484608F018F828686278C369B0F9EE
:104C000022109B7E12FB03114184ADE7300202208B
:104C1000D80105200B490968CA69D16906E00B88EB
:104C2000834202D84B88834203D289680029F6D197
:104C300006E029B14868917E007810FB01F07047CA
:104C4000002070473002022006E002888A4202D823
:104C500042888A4202D280680028F6D1704700005C
:104C600070B50025124C19E020691249C5EB0516F4
:104C700000EBC60070220968001DFBF733FE2069B7
:104C8000002140F8361000EBC60000F10C018161F4
:104C9000011D0A1DC0E90F126D1C4164A068854208
:104CA000E2DB01F003FCBDE8704002F073BF0000DE
:104CB000780402203002022070B50F490D480860C8
:104CC000084603F0C1FE0C4C143CA068C0EB001079
:104CD000C500284600F0A6F82A460021206103F00E
:104CE0002CFF4FF0FF30206002F0BAFFBDE87040AB
:104CF0001BF01ABE3D1A02088C040220F8B50C0005
:104D000005460FD001F0D2FB204600F017F8060050
:104D100010D000F015F9224600902DB12946FBF77E
:104D20005AFD04E00020F8BD002103F006FF6846AC
:104D300000F070F902F02EFF3046F8BD10B5040007
:104D400009D001F0B3FB204616F016FC044602F031
:104D500021FF204610BD002010BD38B5054601F0EA
:104D6000A5FB2846FFF7EAFF040009D000F0E8F8A9
:104D70002A460021009003F0E0FE684600F04AF960
:104D800002F008FF204638BD024A106021F00300FF
:104D9000506070479806052010B5040016D001F049
:104DA00085FB0B48406B10F8341059B1022909D229
:104DB000042101EBC4014158486816F05BF8204615
:104DC0001EF0E2F8BDE8104002F0E4BE10BD0000A5
:104DD000D8050520002805D0034AD16B016001B138
:104DE0004860D06370470000D805052010B5044620
:104DF00001F05CFB2068FFF7CFFF00202060BDE8DA
:104E0000104002F0C7BE000070B50D4606460024F3
:104E100005E000BF06EB8400FFF7E8FF641CAC422E
:104E2000F8DB70BD2DE9F04104461CF037F8284846
:104E3000E41C24F00305016C2D1DA94200D90D4688
:104E4000C46B13E054F8042CAA420ED184B121683B
:104E500009B162684A60616809B122680A60C26B80
:104E6000A24231D12168C1632EE02468002CE9D12F
:104E70008046816BC0680F1857F8040C3E1A3068E2
:104E800038B100201EF0EAF857F8040C3E1A3068DA
:104E9000D0B97068A84217DB3044441B3046241D4B
:104EA0001EF094F8D8F80C10491BC8F80C10D8F86C
:104EB00014102944C8F814107068401B02D0314601
:104EC00015F0D8FF44F8045C2046BDE8F0810000EE
:104ED000D805052010B500241BF0E0FF0C490F2079
:104EE00001EBC002526C1AB101EBC000406C08E04B
:104EF000401EF5D508E04168A14200D90C46806803
:104F000010B180680028F6D1A4F10C0010BD00009B
:104F1000D8050520002138B10449042202EBC00065
:104F2000496B085841680C3908467047D805052078
:104F300002488169491C816170470000D80505203D
:104F40000549CA69521CCA61496B01EBC0010A7864
:104F5000521C0A7000F076B8D80505207CB50646CC
:104F60000C460846FFF7EAFE050020D0FEB13046A9
:104F7000FFF7D0FFA04200DA044601F097FA284676
:104F8000FFF7DEFF00903046FFF7DAFF01460190A1
:104F900022460098FBF71FFC684600F03BF801A88A
:104FA00000F038F83046FFF7F7FE02F0F3FD284630
:104FB0007CBD000010B501F079FAFFF78BFF642289
:104FC0000849B0F5800F04D990FBF2F4086A444315
:104FD00003E0096A4143B1FBF2F402F0DBFD204635
:104FE00010BD0000D80505200549102805D94A68DC
:104FF000B0EB520F02D3500800E0102088607047D9
:105000009806052002488169491E816170470000A9
:10501000D80505200A4902684B6B52F8082C03EBAF
:10502000C2021378022B03D3CB690BB15B1ECB6199
:105030001178491E11700021016008467047000078
:10504000D8050520002806D00349042202EBC00041
:10505000496B085808307047D80505202DE9FC41F8
:105060004FF000060B465FEA000834462BD032B101
:1050700011461846FFF742FE060000D101244046C3
:10508000FFF75EFF0090078845686846FFF7C2FF9C
:10509000CCB9B9002846091DFFF760FF050015D0FF
:1050A000FFF74EFF019040F8276001A8FFF7B2FF1D
:1050B0004046FFF745FF009045600188491C01808C
:1050C0006846FFF7A7FF2046BDE8FC813046FFF7A2
:1050D00063FE0124F7E70820FFF73FBE7CB505001B
:1050E00023D0FFF72DFF00904068C0B1FFF728FFE5
:1050F0000024019005E0019800EB8400FFF776FEA4
:10510000641C00980088A042F5DC01A8FFF782FF2C
:105110000098001DFFF76AFE00990020088068468D
:10512000FFF778FF2846FFF737FE7CBD7CB50C46BD
:10513000FFF706FF00900188A14220D94568F5B12C
:1051400001F0B4F92846FFF7FBFE019000EB840064
:10515000FFF74CFE00990888401E80B20880401E70
:10516000019905E001EB8402526841F82420641C97
:105170008442F7DD01A8FFF74DFF02F00BFD684602
:10518000FFF748FF7CBD38B5002430B1FFF7D8FEEB
:10519000009004886846FFF73DFF204638BD38B5CB
:1051A0000D46002448B1FFF7CBFE2946009000F0E1
:1051B0005BF804466846FFF72DFF204638BD38B53A
:1051C0000D46002448B1FFF7BBFE2946009000F0D1
:1051D0005DF804466846FFF71DFF204638BD2DE9FF
:1051E000FE43984691460D460024D0B3FFF7A8FE33
:1051F00001900788466801A8FFF70CFFBD4230D236
:105200007EB33046FFF79CFE009050F8254068467C
:10521000FFF700FF24B12046FFF77CFE404511D088
:105220004046FFF79AFD04000CD03046FFF788FE99
:1052300000EB850500902846FFF7D8FD68462C60F6
:10524000FFF7E8FEB9F1000F0BD054B12046FFF78D
:1052500077FE424649460290FBF7BDFA02A8FFF7E7
:10526000D9FE2046BDE8FE8338B50D4601880024EE
:10527000A94209D9406838B1FFF762FE009050F8A2
:1052800025406846FFF7C6FE204638BD10B500240D
:10529000FFF7EAFF10B1FFF753FE0446204610BDAA
:1052A00010B5044601F002F9044904EB840001EB57
:1052B0008000447902F06EFC204610BD14070520E2
:1052C0002DE9FC5F8946044601F0F0F8484600F0FD
:1052D0000BFF2C4E09EB8907824656F827000190F8
:1052E00029484FF00108016841B92749C0F80080FA
:1052F000091D26480860084603F0A6FB214A09EB71
:1053000089015FEA0A0002EB81051BD001F042FF30
:1053100083464FF07F4001F059FF00F0B9F80022BA
:105320001146206800F012FC20684288018850462F
:1053300001F094FF46F8274085F80580584601F0B3
:1053400029FF17E046F8274085F80580286946467A
:1053500018B101F04FFE0020286174B10096E86892
:10536000A1684B46421AA8686168411A206801F09A
:105370009BFE286148461EF0ADFD02F00BFC019833
:10538000BDE8FC9F1407052074020220F1190208F1
:1053900070B514460D46064601F088F8204600F028
:1053A000A3FE0300174804EB840109D050F8210044
:1053B00041688068711A2A1A184601F03FFF1CE004
:1053C00000EB8104A268B24201D0012200E0002279
:1053D000E368AB4201D0012300E000231A430CD064
:1053E000236943B150F82100816840686A1A311A74
:1053F000184601F024FEC4E90265BDE8704002F0E1
:10540000C9BB00001407052002480068407C00F07A
:1054100003B800003002022010B5044601F046F83F
:105420000A4804EB840100EB810301225A7150F811
:10543000210030B120461EF04DFDBDE8104002F0C5
:10544000A9BB21460248FFF73BFFF6E714070520FA
:105450008038030810B5C2B2CBB2D21A00D552427E
:1054600093B25B43C0F30722C1F30724121B00D59C
:105470005242000C92B2A0EB114002FB023200B289
:10548000002801DA404200B280B200FB002010BDCB
:1054900010B50021084600F0A7FF43F6FF72504206
:1054A000BDE8104013460146AFF300802DE9FC41F2
:1054B0001C4615460E46074600F0F8FF042007F08C
:1054C000B3FB80461248C068C16C006D0F440644AF
:1054D0000D440444ADF80070ADF80450ADF802601E
:1054E000ADF80640684615F045F807E023462A4621
:1054F0003146384606F0B8FE14F0F0FF0028F5D12A
:10550000404607F091FB02F045FBBDE8FC8100003E
:1055100024020220B0F90630B0F90420B0F90210DC
:10552000B0F90000FFF7C2BF2DE9F8431C00DDE928
:10553000089816460F46054602D113F093FE04461E
:1055400000962E6843464A4621462846B047060044
:1055500039D013F07CFE8146698A304613F0F0F9A9
:10556000304614F085FE484614F082FE4FF00008E5
:105570000CE000BFCDF8008055F81CCF00231A4680
:1055800049462846E04700B314F072FE7F1E002F04
:10559000F0DC1D21484614F054FC601C12D000F0D1
:1055A00085FF13F0A3FE30B1FFF74CFD8469B442D0
:1055B00001D02000F8D1B44202D0304614F052FDA0
:1055C00002F0E8FA3046BDE8F883304613F026FDD5
:1055D0000020F8E72DE9F0411C4616460D46074627
:1055E000022B02DB0020BDE8F0811C20FFF71AFC33
:1055F0000028F8D00DB105610AE0094A52F82410DC
:1056000009B905E011460A68002AFBD10969016160
:1056100084618682002101604160C0E90217E2E7EF
:105620004802022070B51D46FFF7D4FF040009D0E0
:1056300000F00EF8E068006820B90348006800EB4D
:1056400085008465204670BD30020220FFF7C2BB92
:1056500070B590B38269022A30DA1E4C54F82210D9
:1056600019B944F8220032E019464B68002BFBD1EF
:1056700006E0CB68C5681B682D68AB4203DD09688E
:105680000029F6D11AE0C1B1CB68C6681B6836683C
:10569000B3420CD1838A012B05D008E01946DB68A0
:1056A0001B68AB4203DB0B68002BF7D129B14B68B9
:1056B00033B118604A68426004E0FFE7012070BD22
:1056C00044F822004860884200D100210160002097
:1056D00070BD00004802022010B503E00468FFF727
:1056E000B7FF20460028F9D110BD1EF0ABBE000068
:1056F0002DE9F0410026DFF834800D4F354600BF1C
:1057000058F8254009E0E0680068385C20B1204680
:105710001EF098FE266026462468002CF3D16D1CEE
:10572000022DEDDB3046BDE8F0810000480202208A
:105730005C090308022801DB00207047054951F885
:10574000200004E0C16809680029F6D0006800283C
:10575000F8D17047480202202DE9F8431D4616464D
:10576000884604000CD0FFF7EBFB00900068076848
:105770006846FFF74FFC2B46324641462046B84765
:10578000BDE8F88338B504004FF000000AD0204689
:10579000FFF7D6FB0090006845686846FFF73AFCC3
:1057A0002046A84738BD38B504004FF000000AD0A5
:1057B0002046FFF7C5FB0090006885686846FFF744
:1057C00029FC2046A84738BD2DE9F041044602F0E7
:1057D00031FA06191EE000BF00F090FB052F00DD36
:1057E000052700F063FE11480568FFF7A1FB2C00B8
:1057F00017D000BF02F0CEF9641EFBD1384602F08C
:10580000FDF91DB100F052FE6D1EFBD1FFF7FAFB52
:1058100002F0C0F902F00EFA371A002FDCDCBDE806
:10582000F081384602F0EAF9F0E700008404022033
:1058300010B5044600F03AFE2046FBF71FFFBDE816
:10584000104002F0A7B9000070B514460D46064698
:1058500000F02CFE0548016830464D848C84FBF72F
:105860000DFFBDE8704002F095B900003002022043
:1058700070B50C46054602E02846FFF7D9FF641EC6
:10588000FAD570BD10B500F011FE00F015FD054908
:1058900009688A8C10448884088C4884BDE81040CC
:1058A00002F078B9300202202DE9FC4706005FD0F3
:1058B00000F0FCFD00F000FD3C4C81462068B0F992
:1058C000228000F059FD216807468A8CD01B88840D
:1058D00041E000BF47F6FF71304602F04BFF8246C1
:1058E0000146304602F01CFF2168054691F82C0065
:1058F00000F00300012841D002283BD000204A8C50
:10590000101A4884ADF800006A1E1044ADF8040077
:10591000888CADF80200A9F101010844ADF8060039
:105920006A465146304602F057FB2168BDF8020036
:1059300088845146304602F01BF8064430780A2825
:105940001ED00D281CD0BDF80000216828444884D2
:10595000307818B1761C30780028BBD12068818C53
:1059600039448184818D21F00301818502F012F98F
:10597000BDE8FC8705EBD5704010C0E72846BEE7C0
:10598000206890F82C1001F0030101290BD00229A6
:1059900009D0018C418431780A29D9D1828C02EB5B
:1059A00009018184D4E7A0F82280F4E730020220C4
:1059B00070B514460D46064600F078FD05480068AF
:1059C000458484843046FFF76FFFBDE8704002F0E5
:1059D000E1B800003002022047F6FF73AFF3008009
:1059E0002DE9FC411F4690460D4606004FF000048D
:1059F0001AD000F05BFD65B1284614F0DFFB04000F
:105A000007D002462946684602F021FF684614F096
:105A1000D5FB3B4642462946304602F035FB204640
:105A200014F0CCFB02F0B6F8BDE8FC812DE9FF4F85
:105A300087B09046894607007DD000F037FDD9F841
:105A40000040D9F8045021B228B2401A401C0290FC
:105A500000F032FC064618F00C0F1ED038460A9AA9
:105A6000029902F0A1F808F00C01042904D00829D9
:105A700002D00C2911D104E0291400FB1610401C9F
:105A800009E02114C1EB254200FB1620401C00EB6D
:105A9000D07001EB600060F31F44484614F08EFBA9
:105AA0005FEA000B09D00246494604A8CDE9044547
:105AB00002F0CDFE04A814F081FBA6F1010A3846DD
:105AC0000A9A029903F008F803900AEB244060F365
:105AD0001F45CDE900453846039902F021FE18F034
